:020000040800F2
:100000007C5A012089010008F5010008F50100086B
:10001000F5010008F5010008F501000800000000E6
:10002000000000000000000000000000F5010008D2
:10003000F501000800000000F5010008F5010008C6
:10004000F5010008F5010008F5010008F5010008B8
:10005000F5010008F5010008F5010008F5010008A8
:10006000F5010008F5010008F5010008F501000898
:10007000F5010008F5010008F5010008F501000888
:10008000F5010008F5010008F5010008F501000878
:10009000F5010008F5010008F5010008F501000868
:1000A000F5010008F5010008F5010008F501000858
:1000B0004D110008F5010008F5010008F5010008E0
:1000C000F5010008F5010008F5010008F501000838
:1000D000F5010008F5010008F5010008F501000828
:1000E000F5010008F5010008F5010008F501000818
:1000F000F5010008F5010008F5010008F501000808
:10010000F5010008F5010008F5010008F5010008F7
:10011000F5010008F5010008F5010008F5010008E7
:10012000F5010008F5010008F5010008F5010008D7
:10013000F5010008F5010008F5010008F5010008C7
:10014000F5010008F5010008F5010008F5010008B7
:100150007D120008F5010008F5010008F50100080E
:10016000F5010008F5010008F5010008F501000897
:10017000F5010008F5010008F5010008F501000887
:10018000F5010008F501000880B582B000AF41F626
:100190006C03C0F600037B6040F20003C2F2000370
:1001A0003B600BE07B681A683B681A603B6803F1B0
:1001B00004033B607B6803F104037B603A6840F210
:1001C0000003C2F200039A42ECD3084808494FF0FA
:1001D00000028842B8BF40F8042BFFF6FAAF00F0E7
:1001E0000DF807F10807BD4680BD000000000020A3
:1001F0007C52012080B400AFFEE700BF80B582B022
:1002000002AF00F0FBF900F067FD4FF0000000F0D6
:10021000B7FD4FF0FE0300934FF00A004FF032019C
:100220004FF096024FF0320300F002F8FEE700BFF5
:1002300080B58EB000AFF860B9607A603B60FA6854
:100240007B68D31A002BB8BF5B423B63BA683B683C
:10025000D31A002BB8BF5B42FB623A6BFB6A92FB7E
:10026000F3F3BB624FF000037B624FF000037B634C
:10027000BB6A002B25DCFB687B631DE07A6BFB68A7
:10028000D31AFA6A02FB03F23B6B92FBF3F2BB68F0
:10029000D3183B62FA687B6BD318FB61FB699AB297
:1002A0003B6A9BB2104619464FF0FE0200F092FDE9
:1002B0007B6B03F101037B637A6B7B689A42DDDB26
:1002C00024E0BB687B631DE07A6BBB68D31A3A6B92
:1002D00002FB03F2BB6A92FBF3F2FB68D318BB612B
:1002E000BA687B6BD3187B61BB699AB27B699BB29E
:1002F000104619464FF0FE0200F06CFD7B6B03F1D7
:1003000001037B637A6B3B689A42DDDB07F13807B8
:10031000BD4680BD80B483B000AF78600B46FB70F3
:10032000FB78002B0CD04FF46053C4F202034FF45F
:100330006052C4F20202116B7A680A431A630DE03C
:100340004FF46053C4F202034FF46052C4F202024D
:10035000116B7A686FEA02020A401A6307F10C0710
:10036000BD4680BC704700BF80B483B000AF7860EA
:100370000B46FB70FB78002B0CD04FF46053C4F29B
:1003800002034FF46052C4F20202116C7A680A430D
:100390001A640DE04FF46053C4F202034FF460524C
:1003A000C4F20202116C7A686FEA02020A401A640F
:1003B00007F10C07BD4680BC704700BF80B483B016
:1003C00000AF78600B46FB70FB78002B0CD04FF42D
:1003D0006053C4F202034FF46052C4F20202516C43
:1003E0007A680A435A640DE04FF46053C4F2020382
:1003F0004FF46052C4F20202516C7A686FEA020252
:100400000A405A6407F10C07BD4680BC704700BF24
:1004100080B487B000AF786039604FF000037B6133
:100420004FF000033B614FF00003FB604FF000030F
:100430007B6186E07B694FF0010202FA03F33B61C6
:100440003B681A683B691340FB60FA683B699A4253
:1004500073D17B681A687B694FEA43034FF003014D
:1004600001FA03F36FEA03031A407B681A607B68A2
:100470001A683B681B7919467B694FEA430301FA06
:1004800003F31A437B681A603B681B79012B03D086
:100490003B681B79022B34D17B689A687B694FEAF1
:1004A00043034FF0030101FA03F36FEA03031A4019
:1004B0007B689A607B689A683B685B7919467B69C0
:1004C0004FEA430301FA03F31A437B689A607B689F
:1004D0005A687B699BB24FF0010101FA03F36FEA9E
:1004E00003031A407B685A607B685A683B689B79B3
:1004F00019467B699BB201FA03F39BB21A437B68EE
:100500005A607B68DA687B699BB24FEA43034FF01D
:10051000030101FA03F36FEA03031A407B68DA6010
:100520007B68DA683B68DB7919467B694FEA4303ED
:1005300001FA03F31A437B68DA607B6903F1010374
:100540007B617B690F2B7FF675AF07F11C07BD46FA
:1005500080BC704780B485B000AF786013460A460F
:100560007A807B704FF00003FB604FF00003BB60AC
:100570007A787B8803F007034FEA830302FA03F3D8
:10058000FB607B884FEAD3039BB21A467B884FEA15
:10059000D3039BB219467B6801F1080153F821107F
:1005A0007B8803F007034FEA83034FF00F0000FA44
:1005B00003F36FEA030319407B6802F1080243F872
:1005C00022107B884FEAD3039BB21A467B6802F164
:1005D000080253F82220FB681343BB607B884FEA74
:1005E000D3039BB21A467B6802F10802B96843F84C
:1005F000221007F11407BD4680BC704780B500AFDC
:100600004FF46053C4F202034FF46052C4F202028A
:10061000126842F001021A604FF46053C4F2020300
:100620004FF000029A604FF46053C4F202034FF49B
:100630006052C4F20202126822F0847222F4803204
:100640001A604FF46053C4F2020343F21002C2F284
:1006500000425A604FF46053C4F202034FF46052F8
:10066000C4F20202126822F480221A604FF460532E
:10067000C4F202034FF00002DA6000F009F84FF410
:100680006D43CEF200034FF000629A6080BD00BF60
:1006900080B483B000AF4FF000037B604FF00003E5
:1006A0003B604FF46053C4F202034FF46052C4F253
:1006B0000202126842F480321A604FF46053C4F2AE
:1006C00002031B6803F400333B607B6803F1010302
:1006D0007B603B68002B03D17B68B3F5A06FECD146
:1006E0004FF46053C4F202031B6803F40033002B81
:1006F00003D04FF001033B6002E04FF000033B608A
:100700003B68012B40F082804FF46053C4F2020337
:100710004FF46052C4F20202126C42F080521A642A
:100720004FF4E043C4F200034FF4E042C4F200028D
:10073000126842F480421A604FF46053C4F202031C
:100740004FF46052C4F2020292689A604FF4605310
:10075000C4F202034FF46052C4F20202926842F4FF
:1007600000429A604FF46053C4F202034FF46052A7
:10077000C4F20202926842F4A0529A604FF46053AD
:10078000C4F2020345F20842C0F240725A604FF4CC
:100790006053C4F202034FF46052C4F202021268C2
:1007A00042F080721A6000BF4FF46053C4F202033B
:1007B0001B6803F00073002BF6D04FF47053C4F2A3
:1007C000020340F205621A604FF46053C4F2020360
:1007D0004FF46052C4F20202926822F003029A605F
:1007E0004FF46053C4F202034FF46052C4F20202A9
:1007F000926842F002029A6000BF4FF46053C4F264
:1008000002039B6803F00C03082BF6D107F10C07D9
:10081000BD4680BC704700BF80B483B000AF786035
:100820007B681B6823F001027B681A607B684FF0CD
:1008300000021A607B684FF000025A607B684FF03C
:1008400000029A607B684FF00002DA607B684FF02C
:1008500000021A617B684FF021025A617A6846F201
:100860001003C4F202039A4207D14FF4C043C4F20A
:1008700002034FF03D029A60EBE07A6846F22803EB
:10088000C4F202039A4207D14FF4C043C4F20203F8
:100890004FF474629A60DCE07A6846F24003C4F276
:1008A00002039A4207D14FF4C043C4F202034FF44B
:1008B00074129A60CDE07A6846F25803C4F20203DB
:1008C0009A4207D14FF4C043C4F202034FF074625E
:1008D0009A60BEE07A6846F27003C4F202039A425C
:1008E00009D14FF4C043C4F202034FF03D02C2F2FB
:1008F0000002DA60ADE07A6846F28803C4F20203CF
:100900009A4209D14FF4C043C4F202034FF4746217
:10091000C2F20002DA609CE07A6846F2A003C4F2F8
:1009200002039A4209D14FF4C043C4F202034FF0CC
:100930000002C2F23D02DA608BE07A6846F2B80348
:10094000C4F202039A4207D14FF4C043C4F2020337
:100950004FF03D52DA607CE07A6846F21043C4F210
:1009600002039A4207D14FF4C843C4F202034FF086
:100970003D029A606DE07A6846F22843C4F20203B1
:100980009A4207D14FF4C843C4F202034FF4746291
:100990009A605EE07A6846F24043C4F202039A42EB
:1009A00007D14FF4C843C4F202034FF474129A60A3
:1009B0004FE07A6846F25843C4F202039A4207D1E4
:1009C0004FF4C843C4F202034FF074629A6040E0EF
:1009D0007A6846F27043C4F202039A4209D14FF496
:1009E000C843C4F202034FF03D02C2F20002DA60D3
:1009F0002FE07A6846F28843C4F202039A4209D192
:100A00004FF4C843C4F202034FF47462C2F200020E
:100A1000DA601EE07A6846F2A043C4F202039A420A
:100A200009D14FF4C843C4F202034FF00002C2F2EE
:100A30003D02DA600DE07A6846F2B843C4F2020380
:100A40009A4206D14FF4C843C4F202034FF03D521C
:100A5000DA6007F10C07BD4680BC704780B485B0F2
:100A600000AF786039604FF00003FB607B681B6863
:100A7000FB60FA6848F23F03CFF21C031340FB60AF
:100A80003B681A683B68DB681A433B685B691A433A
:100A90003B689B691A433B68DB691A433B681B6AE6
:100AA0001A433B685B6A1A433B689B6A1A433B687C
:100AB0005B6B1A433B689B6B1343FA681343FB6001
:100AC0007B68FA681A607B685B69FB60FB6823F0EF
:100AD0000703FB603B68DA6A3B681B6B1343FA68E9
:100AE0001343FB607B68FA685A613B681A697B684C
:100AF0005A603B685A687B689A603B689A687B6872
:100B0000DA6007F11407BD4680BC704780B483B03B
:100B100000AF78600B46FB70FB78002B06D07B683B
:100B20001B6843F001027B681A6005E07B681B6864
:100B300023F001027B681A6007F10C07BD4680BCF8
:100B4000704700BF80B485B000AFF860B96013464D
:100B5000FB71BB6803F08003002B0FD0FB79002BE7
:100B600006D0FB685B6943F08002FB685A6105E0D0
:100B7000FB685B6923F08002FB685A61BB68802BCD
:100B800015D0FB79002B08D0FB681A68BB6803F00E
:100B90001E031A43FB681A6009E0FB681A68BB6809
:100BA00003F01E036FEA03031A40FB681A6007F1A3
:100BB0001407BD4680BC704780B487B000AF786032
:100BC00039604FF00003FB754FF00003FB604FF0FE
:100BD0000003BB607A6846F20F43C4F202039A42F4
:100BE00005D84FF4C043C4F202033B6104E04FF464
:100BF000C843C4F202033B613B6823F0F02323F0B7
:100C0000C313002B0BD03B684FEAD32303F01E0322
:100C1000FB607B681A68FB681340BB6004E07B687C
:100C20005B6903F08003BB603B6803F00053002B5B
:100C300003D03B695B68FB6002E03B691B68FB60BB
:100C4000FB6823F0F02323F08213FB60FA683B6813
:100C50001340002B06D0BB68002B03D04FF00103DC
:100C6000FB7502E04FF00003FB75FB7D184607F1B2
:100C70001C07BD4680BC704780B485B000AF78606B
:100C800039607A6846F20F43C4F202039A4205D8EB
:100C90004FF4C043C4F20203FB6004E04FF4C843C6
:100CA000C4F20203FB603B6803F00053002B07D043
:100CB0003B6823F0F02323F08213FA68D36006E048
:100CC0003B6823F0F02323F08213FA68936007F166
:100CD0001407BD4680BC704780B582B000AF40F2BB
:100CE0000003C2F200034FF000021A8040F200033A
:100CF000C2F200034FF000025A6040F20003C2F259
:100D000000034FF000029A604FF00003BB801DE02B
:100D10004FF00003FB8011E0BB8840F2691202FB38
:100D200003F2FB88D21840F20C03C2F200034FF02A
:100D300000019954FB8803F10103FB80FB88B3F5A4
:100D4000B47FE9D9BB8803F10103BB80BB88EF2BDB
:100D5000DED900F069F800F0DDF800F097F900F056
:100D600059F946F28843C4F202031A6840F20003BC
:100D7000C2F200039A6007F10807BD4680BD00BFBC
:100D800080B584B000AF0346FB714FF00003BB8118
:100D900018E04FF00003FB810BE0F989BA89FB7979
:100DA000084611461A4600F015F8FB8903F10103C5
:100DB000FB81FA8940F267139A42EED9BB8903F1AD
:100DC0000103BB81BB89EF2BE3D907F11007BD46B7
:100DD00080BD00BF80B483B000AF13460246FA80E6
:100DE0000A46BA80FB70FA8840F267139A4202D929
:100DF0004FF00003FB80BB88EF2B02D94FF00003BC
:100E0000BB80BB8840F2691202FB03F2FB88D21858
:100E100040F20C03C2F20003F978995407F10C0771
:100E2000BD4680BC704700BF80B582B000AF4FF0B8
:100E300010004FF00101FFF76DFA4FF47F433B6064
:100E40004FF001033B714FF00003BB714FF0010302
:100E5000FB714FF003037B713B464FF48050C4F2AB
:100E600002001946FFF7D4FA4FF48053C4F202038C
:100E70004FF47F425A834FF002004FF00101FFF719
:100E800049FA4FF400633B604FF002033B714FF0AF
:100E900003037B714FF00003BB714FF00103FB7143
:100EA0003B464FF48060C4F202001946FFF7B0FAE7
:100EB0004FF48060C4F202004FF00B014FF00102CA
:100EC000FFF748FB4FF002004FF00101FFF722FA55
:100ED0004FF480533B604FF001033B714FF0000330
:100EE000BB714FF00103FB714FF003037B713B4675
:100EF0004FF48060C4F202001946FFF789FA4FF4FC
:100F00008063C4F202034FF480521A8307F108078A
:100F1000BD4680BD80B588B000AF4FF001004FF0F6
:100F20000101FFF74BFA4FF00B03BB614FF00003D9
:100F3000BB824FF00003BB834FF00003FB8207F13D
:100F400014034FF00000C4F20100194600F03EFA0D
:100F50004FF001004FF00101FFF706FA40F66B2356
:100F6000BB614FF00003BB824FF00003BB834FF027
:100F70000003FB8207F114034FF08040194600F094
:100F800025FA4FF060033B804FF001037B804FF464
:100F9000D273BB604FF00203BB813B464FF08040F1
:100FA000194600F0CDFA4FF080404FF0080100F0F4
:100FB000C7FB4FF060033B804FF001037B804FF491
:100FC000A073BB604FF00203BB813B464FF08040F3
:100FD000194600F045FB4FF080404FF0080100F04B
:100FE000CBFB4FF00000C4F201004FF0010100F014
:100FF00067FA4FF080404FF0010100F061FA4FF0C6
:1010000080404FF0010100F07BFA07F12007BD4658
:1010100080BD00BF80B582B000AF46F28840C4F208
:1010200002004FF010014FF00102FFF78BFD4FF06F
:1010300044033B714FF000037B714FF00003BB7121
:101040004FF00103FB7107F10403184600F04CF95F
:101050004FF080404FF008014FF0010200F0ACFB70
:101060004FF01C033B714FF000037B714FF0000306
:10107000BB714FF00103FB7107F10403184600F048
:1010800033F907F10807BD4680BD00BF80B590B0B9
:1010900000AF4FF480004FF00101FFF73BF946F23B
:1010A0008840C4F202004FF00001FFF72FFD46F226
:1010B0008840C4F20200FFF7AFFB4FF040637B6053
:1010C00041F21503C4F20203BB6040F20C03C2F20A
:1010D0000003FB604FF040033B6140F269137B610A
:1010E0004FF00003BB614FF48063FB614FF00003DE
:1010F0003B624FF000037B624FF00003BB624FF492
:101100004033FB624FF000033B634FF001037B630E
:101110004FF00003BB634FF00003FB6307F10403D0
:1011200046F28840C4F202001946FFF797FC4FF0E0
:101130000000C4F201004FF480714FF0010200F092
:1011400071FB07F14007BD4680BD00BF80B500AF11
:101150004FF080404FF0080100F052FB40F20003D6
:10116000C2F200031B8803F101039AB240F20003AC
:10117000C2F200031A8040F20003C2F200031B888F
:10118000B3F5037F0FD940F20003C2F200034FF022
:1011900000021A8040F20C02C2F2000240F2000388
:1011A000C2F200035A6040F20003C2F200031B883F
:1011B000012B07D84FF48063C4F202034FF480522E
:1011C0005A8306E04FF48063C4F202034FF4805266
:1011D0001A8340F20003C2F200031B88232B4BD971
:1011E00040F20003C2F200031A8840F202239A423E
:1011F00042D846F28843C4F2020340F20002C2F22F
:10120000000292681A6046F28843C4F2020340F278
:101210000002C2F200025268DA604FF00003C4F22A
:1012200001034FF00002C4F20102128892B242F0B0
:10123000010292B21A8046F28843C4F2020346F2D7
:101240008842C4F20202126842F001021A6040F2BF
:101250000003C2F200031B8803F00103002B0BD034
:1012600040F20003C2F200035B6803F2691240F22D
:101270000003C2F200035A6080BD00BF80B500AF1A
:1012800046F28840C4F202004FF40841C2F2000165
:10129000FFF792FC0346002B25D046F28840C4F2AB
:1012A00002004FF40841C2F20001FFF7E5FC4FF0E5
:1012B0000003C4F201034FF00002C4F201021288DD
:1012C00092B222F0010292B21A8046F28843C4F22E
:1012D00002034FF000021A604FF48053C4F202037D
:1012E0004FF47F425A8380BD80B485B000AF7860F0
:1012F0004FF00003FB734FF00003BB734FF00F037D
:101300007B737B68DB78002B45D04FF46D43CEF2C6
:101310000003DB686FEA030303F4E0634FEA13237F
:10132000FB73FB7BC3F10403BB737A7BFB7B42FA49
:1013300003F37B737B685B781A46BB7B02FA03F38B
:10134000FB737B689A787B7B1340DAB2FB7B134399
:10135000FB73FB7B4FEA0313FB734FF46143CEF245
:1013600000037A6812789B18FA7B83F800234FF405
:101370006143CEF200037A6812784FEA5212D2B279
:101380007968097801F01F014FF0010000FA01F1BE
:1013900043F8221014E04FF46143CEF200037A6860
:1013A00012784FEA5212D2B27968097801F01F011F
:1013B0004FF0010000FA01F102F1200243F822107F
:1013C00007F11407BD4680BC704700BF80B485B0EC
:1013D00000AF786039604FF00003FB817B681B88A9
:1013E000FB817A684FF00003C4F201039A421FD0D8
:1013F0007A684FF48063C4F201039A4218D07B6884
:10140000B3F1804F14D07A684FF48063C4F20003C4
:101410009A420DD07A684FF40063C4F200039A42F6
:1014200006D07A684FF44063C4F200039A4208D1B0
:10143000FB8923F07003FB813B685A88FB891343C7
:10144000FB817A684FF48053C4F200039A420FD0B4
:101450007A684FF4A053C4F200039A4208D0FB8983
:1014600023F44073FB813B681A89FB891343FB819A
:101470007B68FA891A803B685A687B68DA623B6845
:101480001A887B681A857A684FF00003C4F201035A
:101490009A4206D07A684FF48063C4F201039A42FC
:1014A00004D13B689B7A1A467B681A867B684FF0AA
:1014B00001029A8207F11407BD4680BC704700BF45
:1014C00080B483B000AF78600B46FB70FB78002BD4
:1014D00008D07B681B889BB243F080039AB27B687C
:1014E0001A8007E07B681B889BB223F080039AB2C6
:1014F0007B681A8007F10C07BD4680BC704700BFAF
:1015000080B483B000AF78600B46FB70FB78002B93
:1015100008D07B681B889BB243F001039AB27B68BA
:101520001A8007E07B681B889BB223F001039AB204
:101530007B681A8007F10C07BD4680BC704700BF6E
:1015400080B485B000AF786039604FF000037B81D4
:101550004FF00003FB814FF00003BB817B681B8CC5
:101560009BB223F480739AB27B681A847B681B8CCD
:10157000FB817B689B88BB817B689B8B7B817B89A4
:1015800023F070037B817B8923F003037B813B681D
:101590001A887B8913437B81FB8923F40073FB81C9
:1015A0003B689B894FEA03239AB2FB891343FB8173
:1015B0003B685B884FEA03239AB2FB891343FB81A4
:1015C0007A684FF00003C4F201039A4206D07A68A9
:1015D0004FF48063C4F201039A422FD1FB8923F4B4
:1015E0000063FB813B68DB894FEA03239AB2FB89E6
:1015F0001343FB81FB8923F48063FB813B689B8859
:101600004FEA03239AB2FB891343FB81BB8923F47E
:101610008053BB81BB8923F40053BB813B681B8A89
:101620004FEA03139AB2BB891343BB813B685B8AC1
:101630004FEA03139AB2BB891343BB817B68BA8913
:101640009A807B687A899A833B689A687B68DA63B8
:101650007B68FA891A8407F11407BD4680BC70477D
:1016600080B485B000AF786039604FF00003BB8173
:101670004FF000037B814FF00003FB817B681B8CE4
:101680009BB223F480539AB27B681A847B681B8CCC
:101690007B817B689B88FB817B689B8BBB81BB8943
:1016A00023F4E043BB81BB8923F44073BB813B68D7
:1016B0001B884FEA03239AB2BB891343BB817B8902
:1016C00023F400537B813B689B894FEA03339AB232
:1016D0007B8913437B813B685B884FEA03339AB273
:1016E0007B8913437B817A684FF00003C4F20103C6
:1016F0009A4206D07A684FF48063C4F201039A429A
:101700000BD1FB8923F48043FB813B681B8A4FEAA2
:1017100083139AB2FB891343FB817B68FA899A8011
:101720007B68BA899A833B689A687B681A647B688D
:101730007A891A8407F11407BD4680BC704700BF40
:1017400080B485B000AF78600B467B804FF000031B
:10175000FB817B689B8BFB81FB8923F00803FB816A
:10176000FA897B881343FB817B68FA899A8307F1A6
:101770001407BD4680BC704780B485B000AF786068
:101780000B467B804FF00003FB817B689B8BFB81CA
:10179000FB8923F40063FB817B884FEA03239AB221
:1017A000FB891343FB817B68FA899A8307F114074D
:1017B000BD4680BC704700BF80B483B000AF786086
:1017C00013460A467A807B707B78002B08D07B68B2
:1017D0009B899AB27B8813439AB27B689A810AE00C
:1017E0007B689B899AB27B886FEA03039BB21340A4
:1017F0009AB27B689A8107F10C07BD4680BC70479E
:1018000080B483B000AF78600B467B807B886FEA42
:1018100003039AB27B681A8207F10C07BD4680BCAD
:10182000704700BF80B483B000AF786013460A46AB
:101830007A807B707B78002B08D07B689B899AB27A
:101840007B8813439AB27B689A810AE07B689B8904
:101850009AB27B886FEA03039BB213409AB27B680B
:0C1860009A8107F10C07BD4680BC704760
:0400000508000000EF
:00000001FF
